:100000000C9472000C9493000C9493000C94930045
:100010000C9493000C9493000C9493000C94930014
:100020000C9493000C9493000C9493000C94930004
:100030000C9493000C9493000C9493000C949300F4
:100040000C9493000C9493000C9493000C949300E4
:100050000C9493000C9493000C9493000C949300D4
:100060000C9493000C9493000C9493000C949300C4
:100070000C9493000C9493000C9493000C949300B4
:100080000C9493000C9493000C9493000C949300A4
:100090000C9493000C9493000C9493000C94930094
:1000A0000C9493000C9493000C9493000C94930084
:1000B0000C9493000C9493000C9493000C94930074
:1000C0000C9493000C9493000C9493000C94930064
:1000D0000C9493000C9493000C9493000C94930054
:1000E0000C94930011241FBECFEFD1E2DEBFCDBF31
:1000F00000E00CBF12E0A0E0B2E0E2E9F1E000E0D5
:100100000BBF02C007900D92A630B107D9F722E0CD
:10011000A6E0B2E001C01D92A730B207E1F70E944D
:10012000C0000C94C7000C940000E1ECF0E01082D9
:100130001092C00086E08093C2008FE58093C400D7
:100140001092C50088E980830895F8940E94950074
:10015000789408959091C00095FFFCCF8093C600DD
:100160000895CF93DF93EC018991882331F0082E15
:10017000000C990B0E94AA00F7CFDF91CF91089550
:100180000E94A50080E092E00E94B100FFCFF894A9
:02019000FFCF9F
:0601920068656C6C6F0053
:00000001FF
