:100000000C9472000C9486000C9486000C9486006C
:100010000C9486000C9486000C9486000C94860048
:100020000C9486000C9486000C9486000C94860038
:100030000C9486000C9486000C9486000C94860028
:100040000C9486000C9486000C9486000C94860018
:100050000C9486000C9486000C9486000C94860008
:100060000C9486000C9486000C9486000C948600F8
:100070000C9486000C9486000C9486000C948600E8
:100080000C9486000C9486000C9486000C948600D8
:100090000C9486000C9486000C9486000C948600C8
:1000A0000C9486000C9486000C9486000C948600B8
:1000B0000C9486000C9486000C9486000C948600A8
:1000C0000C9486000C9486000C9486000C94860098
:1000D0000C9486000C9486000C9486000C94860088
:1000E0000C94860011241FBECFEFD1E2DEBFCDBF3E
:1000F00000E00CBF22E0A0E0B2E001C01D92A13000
:10010000B207E1F70E94D7000C94B5020C940000EE
:10011000259A2D9A08950C948800E1E8F0E0108269
:100120008CEF8093850081E08093840093E090932E
:1001300089008FEF8093880090938B0080938A00D2
:1001400090938D0080938C0090938700809386001D
:100150008BEA80938000109282008CE08083089567
:10016000F8940E9488000E948D007894089510925F
:100170008900682F70E080E090E00E9427022BE762
:1001800034E14EEE5FE30E94860120E030E04CE077
:1001900052E40E941A010E94F801609388000895B9
:1001A00083E0809389008FEF8093880008950E94F8
:1001B000B00010920002809100028A3580F40E9403
:1001C000B70029E989E591E0215080409040E1F7AE
:1001D0000000809100028F5F80930002ECCF2FEF30
:1001E0008FEF9CE2215080409040E1F700C000007A
:1001F0008AE58093000280910002843B70F40E94A3
:10020000B70029E989E591E0215080409040E1F76D
:100210000000809100028F5FECCF2FEF8FEF9CE208
:10022000215080409040E1F700C000000E94D000C3
:10023000FFCF5058BB27AA270E9431010C947B02A4
:100240000E946D0238F00E94740220F039F49F3F42
:1002500019F426F40C946A020EF4E095E7FB0C9472
:100260006402E92F0E948C0258F3BA1762077307E1
:100270008407950720F079F4A6F50C94AE020EF4ED
:10028000E0950B2EBA2FA02D0B01B90190010C01A6
:10029000CA01A0011124FF27591B99F0593F50F4BE
:1002A000503E68F11A16F040A22F232F342F442716
:1002B000585FF3CF469537952795A795F04053950E
:1002C000C9F77EF41F16BA0B620B730B840BBAF0DE
:1002D0009150A1F0FF0FBB1F661F771F881FC2F749
:1002E0000EC0BA0F621F731F841F48F4879577955D
:1002F0006795B795F7959E3F08F0B0CF9395880F17
:1003000008F09927EE0F9795879508950E949A0116
:100310000C947B020E94740258F00E946D0240F01F
:1003200029F45F3F29F00C94640251110C94AF0240
:100330000C946A020E948C0268F39923B1F355234E
:1003400091F3951B550BBB27AA27621773078407E8
:1003500038F09F5F5F4F220F331F441FAA1FA9F37E
:1003600035D00E2E3AF0E0E832D091505040E6956C
:10037000001CCAF72BD0FE2F29D0660F771F881FCD
:10038000BB1F261737074807AB07B0E809F0BB0BC0
:10039000802DBF01FF2793585F4F3AF09E3F5105D4
:1003A00078F00C9464020C94AF025F3FE4F3983E43
:1003B000D4F3869577956795B795F7959F5FC9F7BD
:1003C000880F911D9695879597F90895E1E0660F3E
:1003D000771F881FBB1F621773078407BA0720F0B7
:1003E000621B730B840BBA0BEE1F88F7E095089520
:1003F0000E94940288F09F5798F0B92F9927B7511F
:10040000B0F0E1F0660F771F881F991F1AF0BA95B8
:10041000C9F714C0B13091F00E94AE02B1E0089566
:100420000C94AE02672F782F8827B85F39F0B93F58
:10043000CCF3869577956795B395D9F73EF490956B
:100440008095709561957F4F8F4F9F4F0895E894E9
:1004500009C097FB3EF490958095709561957F4F0C
:100460008F4F9F4F9923A9F0F92F96E9BB279395BA
:10047000F695879577956795B795F111F8CFFAF4CA
:10048000BB0F11F460FF1BC06F5F7F4F8F4F9F4FFB
:1004900016C0882311F096E911C0772321F09EE859
:1004A000872F762F05C0662371F096E8862F70E0BF
:1004B00060E02AF09A95660F771F881FDAF7880F99
:1004C0009695879597F9089597F99F6780E870E06A
:1004D00060E008959FEF80EC089500240A941616BA
:1004E000170618060906089500240A941216130622
:1004F000140605060895092E0394000C11F48823B0
:1005000052F0BB0F40F4BF2B11F460FF04C06F5FCB
:100510007F4F8F4F9F4F089557FD9058440F551FA1
:1005200059F05F3F71F04795880F97FB991F61F075
:100530009F3F79F087950895121613061406551FEC
:10054000F2CF4695F1DF08C0161617061806991F58
:10055000F1CF86957105610508940895E894BB274D
:0E05600066277727CB0197F90895F894FFCF0F
:00000001FF
