:100000000C9472000C9486000C9486000C9486006C
:100010000C9486000C9486000C9486000C94860048
:100020000C9486000C9486000C9486000C94860038
:100030000C9486000C9486000C9486000C94860028
:100040000C9486000C9486000C9486000C94860018
:100050000C9486000C9486000C9486000C94860008
:100060000C9486000C9486000C9486000C948600F8
:100070000C9486000C9486000C9486000C948600E8
:100080000C9486000C9486000C9486000C948600D8
:100090000C9486000C9486000C9486000C948600C8
:1000A0000C9486000C9486000C9486000C948600B8
:1000B0000C9486000C9486000C9486000C948600A8
:1000C0000C9486000C9486000C9486000C94860098
:1000D0000C9486000C9486000C94B7000C94860057
:1000E0000C94860011241FBECFEFD1E2DEBFCDBF3E
:1000F00000E00CBF22E0A0E0B2E001C01D92A13000
:10010000B207E1F70E94E7000C94EC000C940000A9
:1001100092B1907F8F70982B92B9089586E00C94DD
:100120008800E1E3F1E010821092300186E08093D4
:1001300032018FE5809334011092350188E9808384
:100140000895F8940E9491007894089581B18F6089
:1001500081B982B1807F82B9EAE0F1E08081886173
:100160008083EBE0F1E080818861808308951F92B5
:100170000F920FB60F9211240BB60F922F933F934D
:100180004F935F936F937F938F939F93AF93BF939F
:10019000EF93FF93809136018093000280910002DB
:1001A000883311F40E948E00FF91EF91BF91AF91BF
:1001B0009F918F917F916F915F914F913F912F917F
:1001C0000F900BBE0F900FBE0F901F9018950E94BE
:0C01D000A1000E94A600FFCFF894FFCF12
:00000001FF
